:02000000312BA2
:06000600000000000800EC
:10000C000F3083120313FC004730FD00FD0B0C284E
:0A001C00FC0B0C2800000000080097
:0E002600213083120313FD00FD0B1728080084
:1000340083120313BD1B20288611212886153D1B1E
:100044002528061126280615BD1A2A2886102B28CD
:1000540086143D1A2F280610302806143118342827
:10006400061635280612861603208612BD193C286A
:1000740086113D2886153D1941280611422806158A
:10008400BD1846288610472886143D184B280610AC
:100094004C280614311850280616512806128616C4
:1000A40003208612311C58280620592813200800E2
:0E00B400831203132E088A002D088200080014
:1000C20083120313FB01FA01F9018030F800F10CED
:1000D200F00C031C75287408F90775080318750FCE
:1000E200FA070318FB0A0310F01F7D287408FA07A9
:1000F20075080318750FFB07FB0CFA0CF90CF80CCA
:10010200031C68287B08F3007A08F2007908F100E2
:060112007808F00008006F
:1001180083120313A701F03088000808F03A031986
:100128001129FE308800A4283130A700B4283230C5
:10013800A700B4283330A700B4284130A700B4285A
:100148000808EE3A031998280808DE3A03199B288C
:100158000808BE3A03199E2808087E3A0319A12800
:10016800FD308800C3283430A700D3283530A700D5
:10017800D3283630A700D3284230A700D328080850
:10018800ED3A0319B7280808DD3A0319BA28080810
:10019800BD3A0319BD2808087D3A0319C028FB3069
:1001A8008800E2283730A700F2283830A700F22864
:1001B8003930A700F2284330A700F2280808EB3AA4
:1001C8000319D6280808DB3A0319D9280808BB3AC6
:1001D8000319DC2808087B3A0319DF28F730880060
:1001E80001292A30A70011293030A700112923300E
:1001F800A70011294430A70011290808E73A031974
:10020800F5280808D73A0319F8280808B73A03194F
:10021800FB280808773A0319FE28F03088000808F8
:10022800F03A0319182913298530FC007630FD00AF
:0C023800FD0B1C29FC0B1C290000080019
:100244003429803083120313BA004729C030BA001E
:1002540047299430BA004729D430BA00472980305E
:10026400BA004729831203133A08013A03192329D0
:100274003A08023A031928293A08033A03192B29A0
:100284003A08043A03192E2931293B03F0003A08AD
:10029400F0077008BA0031147008BD001A2031103C
:0A02A4003C08BD001A2031140800C8
:1002AE008312031331103A08BD001A2031140800CE
:1002BE0083120313A701B201B3018C203030270241
:1002CE00031C87292708393C031C87292708BA00F5
:1002DE0057213208F0003308F1000A30F4000030E4
:1002EE00F500612030302702F200F301031CF30306
:1002FE0072087007B20071080318013E7307B3004D
:10030E0027082A3A031D8E290530A8008F29642953
:02031E000800D5
:100320005A208A110A128000840AAD0A0319AE0A03
:08033000F003031D90290800F1
:1003380083120313A701A501A6018C2030302702E0
:10034800031CC4292708393C031CC4292708BA0000
:1003580057212508F0002608F1000A30F400003083
:10036800F500612030302702F200F301031CF3038B
:1003780072087007A50071080318013E7307A600EC
:1003880027082A3A031DCB290230A800CC29A12925
:0203980008005B
:10039A00DF29803083120313B600F229C030B60079
:1003AA00F2299430B600F229D430B600F22980300E
:1003BA00B600F229831203133608013A0319CE292B
:1003CA003608023A0319D3293608033A0319D629FB
:1003DA003608043A0319D929DC293703F00036080C
:1003EA00F0077008B6007008BD001A203110B90174
:1003FA00390838078400000803190B2A3908380716
:10040A0084000008BA005721B90AFD2931140800EE
:10041A0083120313A701AF01B0018C2030302702E9
:10042A00031C352A2708393C031C352A2708BA0039
:10043A0057212F08F0003008F1000A30F40000308C
:10044A00F500612030302702F200F301031CF303A8
:10045A0072087007AF0071080318013E7307B000F5
:10046A0027082A3A031D3C2A0430A8003D2A122AEA
:02047A00080078
:10047C0083160313861206120610861006118611B7
:10048C00831286120612861106118610061006209B
:10049C0006200620861406148616032086120620D3
:1004AC008616032086120620861603208612062046
:1004BC000610861603208612062086160320861246
:1004CC0086108615861603208612062086110614C1
:1004DC008616032086120610861603208612062026
:1004EC008616032086120614861603208612062012
:1004FC000610861603208612861506158614061419
:0C050C0086160320861206203114080019
:1005180083120313A701AB01AC018C2030302702F2
:10052800031CB42A2708393C031CB42A2708BA003C
:1005380057212B08F0002C08F1000A30F400003095
:10054800F500612030302702F200F301031CF303A9
:1005580072087007AB0071080318013E7307AC00FE
:1005680027082A3A031DBB2A0330A800BC2A912A6F
:02057800080079
:10057A0083120313B401103034020318DA2A36083E
:10058A00BA00340ABB0034083707F00038080318E9
:10059A00013EF1007008AD007108AE005A208A11C0
:0C05AA000A12BC002221B40AC02A08007A
:1005B60083120313A701A901AA018C203030270258
:1005C600031C032B2708393C031C032B2708BA00FE
:1005D60057212908F0002A08F1000A30F4000030FB
:1005E600F500612030302702F200F301031CF3030B
:1005F60072087007A90071080318013E7307AA0064
:1006060027082A3A031D0A2B0130A8000B2BE02AE3
:020616000800DA
:10061800831203132808053A031D302BB501003057
:100628002A02031D192B35082902031C302B8918AF
:100638001E2B1B2BE830FC002430FD00FD0B222B69
:10064800FC0B222B000009140630FD00FD0B2A2BA1
:0A06580000000910B50A132B08007A
:1006620083120313A001A101A201A301A401831615
:1006720003178801890183128713881383160313D2
:10068200860183128601F03083168800F0308312CF
:100692008800023083168900831289013E220C30C1
:1006A200BD001A200130BD001A200130B6001930F9
:1006B200B7000530B800BD220230B6002A30B700BC
:1006C2000530B800BD222730FC00F530FD00FD0BDF
:1006D200682BFC0B682B0130BD001A200130B600DC
:1006E200F730B7000430B800BD220230B60008303F
:1006F200B7000530B800BD222730FC00F530FD0000
:10070200FD0B812BFC0B812B0130BD001A20013027
:10071200B6003B30B7000530B800BD220230B6004B
:100722006E30B7000530B800BD222730FC00F5302E
:10073200FD00FD0B9A2BFC0B9A2B0130BD001A20F9
:100742000130B6007F30B7000530B800BD22273037
:10075200FC00F530FD00FD0BAC2BFC0BAC2B01308B
:10076200BD001A200130B6004C30B7000530B80089
:10077200BD220230B6005D30B7000530B800BD22A0
:100782002730FC00F530FD00FD0BC52BFC0BC52B03
:100792000130BD001A200130B6008030B7000430AD
:1007A200B800BD220230B6009130B7000430B80064
:1007B200BD222730FC00F530FD00FD0BDE2BFC0BCB
:1007C200DE2B0130BD001A200130B6005E30B700CA
:1007D2000430B800BD220230B6006F30B7000430DA
:1007E200B800BD222730FC00F530FD00FD0BF72BD1
:1007F200FC0BF72B0130BD001A200130BD001A207E
:100802000130B600A230B7000430B800BD22023079
:10081200B6000130B7002430B800CD21DB22013010
:10082200BD001A200130B600D530B7000430B80040
:10083200BD220230B6000130B7002330B800CD210E
:100842009C210130BD001A200130B600E630B7000D
:100852000430B800BD220230B6000130B7002230A9
:10086200B800CD218C220130BD001A200130B60023
:10087200B330B7000430B800BD220230B6000130F8
:10088200B7002130B800CD210D220130BD001A2061
:100892000130B600C430B7000430B800BD220230C7
:1008A200B6000130B7002030B800CD215F21013001
:0A08B200BD001A200C23FE2B5D2C64
:1008BC0059342034503472346534733469346F34A1
:1008CC006E346534203445346E347434653472348B
:0208DC000034E6
:1008DE0020342034203420342034203428342A3458
:1008EE002934203420342034203420342034203451
:0208FE000034C4
:10090000503461347234613420346C3461342034B6
:1009100070346F34743465346E34633469346134E4
:020920000034A1
:10092200203420342034443465346C34203454343C
:1009320061346C346134643472346F342034203462
:0209420000347F
:1009440020342034313465347234203450346F34DC
:10095400743465346E34633469346134203420343F
:0209640000345D
:1009660020342034343474346134203450346F34B9
:10097600743465346E34633469346134203420341D
:0209860000343B
:1009880020342034353474346134203450346F3496
:10099800743465346E3463346934613420342034FB
:0209A800003419
:1009AA0020342034323464346134203450346F3487
:1009BA00743465346E3463346934613420342034D9
:0209CA000034F7
:1009CC0020342034333472346134203450346F3456
:1009DC00743465346E3463346934613420342034B7
:0209EC000034D5
:1009EE0020344334613472346C346F3473342034B5
:1009FE0041346734753469346C3461347234203464
:020A0E000034B2
:100A100020342034203432343134353438343634D0
:100A200030343034343439342034203420342034D9
:020A3000003490
:100A3200203420342034203453345334503450344E
:100A420053344534203420342034203420342034AC
:020A520000346E
:100A540049346E3467342E3420344A346F3473345A
:100A640065342034523461346D346F34733420343B
:020A740000344C
:100A76002034503452344F3459344534433454348A
:100A86004F342034463449344E3441344C342034C7
:020A960000342A
:100A9800203420342034533465346C346534633462
:100AA800633469346F346E34653420342034203430
:020AB800003408
:100ABA00203435342034503472346F34633465341E
:100ACA006E34743461346A346534733420342034B7
:020ADA000034E6
:100ADC0043346F346E34743472346F346C34203469
:100AEC002034543461346C346134643472346F3473
:020AFC000034C4
:100AFE00203420342034313438342F344E346F3493
:100B0E0076342F3432343034313436342034203489
:020B1E000034A1
:04400E00F42F000784
:00000001FF
