:02000000562B7D
:0E000600213083120313FD00FD0B07280800B4
:06001400000000000800DE
:10001A000F3083120313FC004730FD00FD0B132839
:0A002A00FC0B132800000000080082
:1000340083120313F801F9011030FC00710DF80D5F
:10004400F90D7408F8027508031C750FF9020318FA
:1000540032287408F80775080318750FF907031098
:0A006400F00DF10DFC0B2028080040
:10006E0083120313BF1B3D2886113E2886153F1BA6
:10007E004228061143280615BF1A4728861048281D
:10008E0086143F1A4C2806104D2806143018512895
:10009E0006165228061286160A208612BF195928ED
:1000AE0086115A2886153F195E2806115F280615F7
:1000BE00BF1863288610642886143F186828061017
:1000CE006928061430186D2806166E280612861634
:1000DE000A208612301C75280D2076280320080071
:1000EE008312031330103A08BF0037203014080073
:1000FE009128803083120313BA00A428C030BA00AE
:10010E00A4289430BA00A428D430BA00A428803091
:10011E00BA00A428831203133A08013A031980285F
:10012E003A08023A031985283A08033A031988282F
:10013E003A08043A03198B288E283B03F0003A083C
:10014E00F0077008BA0030147008BF003720301066
:0A015E003C08BF00372030140800F1
:0E0168008312031322088A0021088200080077
:1001760083120313BD0105303D020318C9283D084B
:100186003C07840020308000BD0ABE283D083C079D
:1001960084008001BD033D083C07BE000A30F40020
:1001A600F5013A08F0003B08F1001A207808F00043
:1001B6007908F1003030F0073E08840070088000AE
:1001C6000A30F400F5013A08F0003B08F1001A2065
:1001D6007008BA007108BB0000307106031DF528CF
:1001E60000307006031DF828FA28BD03CE28080043
:1001F60083120313AD0110302D020318182931089C
:10020600BA002D0ABB002D083207F0003308031888
:10021600013EF1007008A1007108A200B4208A1105
:0C0226000A12BC007F20AD0AFE28080070
:1002320083120313B601B7013108B8003208B900BE
:1002420080303206F00080307002031D2A2900300F
:100252003102031838290130B6000030B7003108E6
:10026200003CB8003208031C013EB901B90238084B
:10027200BA003908BB003308BC00BB200630B4000A
:100282000030B5003508003C031D49293408003C04
:100292000318642934083307F20001303402F000F5
:1002A2000030031C013E3502F10070083307840060
:1002B2000008F00072088400700880000130B40267
:1002C200031CB5034329330884002030800036081C
:1002D200370403198229B401B501340833078400B5
:1002E2000008203A031D7929B40A0319B50A6E29B8
:1002F2000130B402031CB5033408330784002D30E7
:04030200800008006F
:100306009529803083120313B100A829C030B100AB
:10031600A8299430B100A829D430B100A82980308A
:10032600B100A829831203133108013A031984295D
:100336003108023A031989293108033A03198C292D
:100346003108043A03198F2992293203F000310843
:10035600F0077008B1007008BF0037203010B401F4
:1003660034083307840000080319C1293408330709
:1003760084000008BA007720B40AB32930140800B4
:10038600831203132B08B1002C08B2002430B300EB
:1003960019210130B1009130B2000530B300FB20C5
:1003A6000230B1000130B2002430B3008321253081
:0603B600BA0077200800E8
:1003BC0083120313A301F03088000808F03A0319E4
:1003CC00632AFE308800F6293130A300062A323029
:1003DC00A300062A3330A300062A4130A300062AC4
:1003EC000808EE3A0319EA290808DE3A0319ED2940
:1003FC000808BE3A0319F02908087E3A0319F329B4
:10040C00FD308800152A3430A300252A3530A3008E
:10041C00252A3630A300252A4230A300252A0808B5
:10042C00ED3A0319092A0808DD3A03190C2A0808C1
:10043C00BD3A03190F2A08087D3A0319122AFB301A
:10044C008800342A3730A300442A3830A300442AC9
:10045C003930A300442A4330A300442A0808EB3A5D
:10046C000319282A0808DB3A03192B2A0808BB3A77
:10047C0003192E2A08087B3A0319312AF730880011
:10048C00532A2A30A300632A3030A300632A233076
:10049C00A300632A4430A300632A0808E73A03192F
:1004AC00472A0808D73A03194A2A0808B73A031901
:1004BC004D2A0808773A0319502AF03088000808AA
:1004CC00F03A03196A2A652A8530FC007630FD0063
:0C04DC00FD0B6E2AFC0B6E2A00000800CD
:1004E80083120313FB01FA01F9018030F800F10CC3
:1004F800F00C031C882A7408F90775080318750F8F
:10050800FA070318FB0A0310F01F902A7408FA0769
:1005180075080318750FFB07FB0CFA0CF90CF80C9F
:10052800031C7B2A7B08F3007A08F2007908F100A3
:060538007808F000080045
:10053E00831203132F08013A031DCA2AC321F03078
:10054E0088000808F03A031DC72A8918AF2AAC2A7A
:10055E006430AE002C08003C031DB72A2B082E0277
:10056E00031CC02A1630FD00FD0BBB2A0000AE0393
:10057E00B12A09140330FD00FD0BC32A0910A82A65
:08058E000130BF003720080016
:1005960083120313A301AB01AC01DE213030230229
:1005A600031CF32A2308393C031CF32A2308BA0048
:1005B60077202B08F0002C08F1000A30F4000030F8
:1005C600F500742230302302F200F301031CF3031A
:1005D60072087007AB0071080318013E7307AC0080
:1005E60023082A3A031DFA2A0130AF00FB2AD02A33
:0205F6000800FB
:1005F800831603138612061206108610061186113A
:1006080083128612061286110611861006100D2016
:100618000D200D208614061486160A2086120D2039
:1006280086160A2086120D2086160A2086120D20AC
:10063800061086160A2086120D2086160A208612B3
:100648008610861586160A2086120D208611061435
:1006580086160A208612061086160A2086120D2093
:1006680086160A208612061486160A2086120D207F
:10067800061086160A208612861506158614061494
:0C06880086160A2086120D20301408008F
:10069400B4208A110A128000840AA10A0319A20A4A
:0806A400F003031D4A2B0800BE
:1006AC0083120313A0018316031788018901831297
:1006BC008713881383160313860183128601F03087
:1006CC0083168800F030831288000230831689006C
:1006DC0083128901FC220C30BF0037200130BF008F
:1006EC0037200130B100A230B2000530B300FB203E
:1006FC000230B1008030B2000530B300FB200B306B
:10070C00FB002630FC005D30FD00FD0B8B2BFC0B41
:10071C008B2BFB0B8B2B000000000130BF00372014
:10072C000130B1005E30B2000530B300FB20023066
:10073C00B1006F30B2000530B300FB200B30FB0072
:10074C002630FC005D30FD00FD0BAA2BFC0BAA2B08
:10075C00FB0BAA2B000000000130BF00372001303A
:10076C00B100E630B2000530B300FB200230B1001E
:10077C00F730B2000530B300FB200B30FB00263005
:10078C00FC005D30FD00FD0BC92BFC0BC92BFB0BDA
:10079C00C92B000000000130BF0037200130B10030
:1007AC00D530B2000530B300FB200B30FB002630F7
:1007BC00FC005D30FD00FD0BE12BFC0BE12BFB0B7A
:1007CC00E12B000000000130BF0037200130B100E8
:1007DC00B330B2000530B300FB200230B100C4309E
:1007EC00B2000530B300FB200B30FB002630FC00C0
:1007FC005D30FD00FD0B002CFC0B002CFB0B002CCA
:10080C00000000000130BF0037200130B100E7309C
:10081C00B2000430B300FB200230B100F830B2005B
:10082C000430B300FB200B30FB002630FC005D30A5
:10083C00FD00FD0B1F2CFC0B1F2CFB0B1F2C0000B9
:10084C0000000130BF0037200130B100D630B200BB
:10085C000430B300FB200230B100B430B2000430DD
:10086C00B300FB200B30FB002630FC005D30FD009C
:10087C00FD0B3E2CFC0B3E2CFB0B3E2C0000000019
:10088C000130BF0037200130B100C530B200043058
:10089C00B300FB200B30FB002630FC005D30FD006C
:1008AC00FD0B562CFC0B562CFB0B562C00000000A1
:1008BC000130BF0037200130B1003C30B2000530B0
:1008CC00B300FB200230B1004D30B2000530B30054
:1008DC00FB200B30FB002630FC005D30FD00FD0BD7
:1008EC00752CFC0B752CFB0B752C000000000130DB
:1008FC00BF0037200130B1002B30B2000530B300FF
:10090C00FB200230B1000930B2000530B300FB20EF
:10091C000B30FB002630FC005D30FD00FD0B942CF1
:10092C00FC0B942CFB0B942C000000000130BF003E
:10093C0037200130B1001A30B2000530B300FB2073
:10094C000230B1000530B2002030B3008321CB223D
:0C095C000130BF0037209F229F2CB32CDD
:1009680020342034203420342034203428342A34CD
:1009780029342034203420342034203420342034C6
:02098800003439
:10098A00203420342034443465347334703475345C
:10099A00653473342E342E342E34203420342034EB
:0209AA00003417
:1009AC0059342034503472346534733469346F34B0
:1009BC006E346534203445346E347434653472349A
:0209CC000034F5
:1009CE00503461347234613420346C3461342034E8
:1009DE0070346F34743465346E3463346934613416
:0209EE000034D3
:1009F000203420342034443465346C34203454346E
:100A000061346C346134643472346F342034203493
:020A10000034B0
:100A12004F34743472346F342034203450346F3491
:100A22007234633465346E34743461346A346534D8
:020A320000348E
:100A34004434693467346934743465342034253477
:100A440020344434653473346534613464346F342D
:020A540000346C
:100A560050346134723461342034533465346C3428
:100A660065346334633469346F346E34613472349C
:020A760000344A
:100A78004F347034723469346D3461342034433403
:100A8800753461346C347134753469346534723456
:020A9800003428
:100A9A002034203420342034203420345434653433
:100AAA0063346C34613420342034203420342034CC
:020ABA00003406
:100ABC0020344334613472346C346F3473342034E6
:100ACC0041346734753469346C3461347234203495
:020ADC000034E4
:100ADE002034203420343234313435343834363402
:100AEE00303430343434393420342034203420340B
:020AFE000034C2
:100B000049346E3467342E3420344A346F347334AD
:100B100065342034523461346D346F34733420348E
:020B200000349F
:100B22002034203450346F34743465346E3463347A
:100B3200693461342034443465346C3420342034D4
:020B420000347D
:100B4400203420342034203453345334503450343B
:100B54005334453420342034203420342034203499
:020B640000345B
:100B6600203420342034533465346C346534633493
:100B7600633469346F346E34653420342034203461
:020B8600003439
:100B8800203445346C342034503472346F34633438
:100B980065346E34743461346A34653420342034F6
:020BA800003417
:100BAA00203420342034313438342F344E346F34E6
:100BBA0076342F34323430343134363420342034DD
:020BCA000034F5
:100BCC002034503452344F34593445344334543433
:100BDC004F342034463449344E3441344C34203470
:020BEC000034D3
:100BEE0043346F346E34743472346F346C34203456
:100BFE002034543461346C346134643472346F3460
:020C0E000034B0
:04400E00F42F000784
:00000001FF
